{
  "contractName": "DRCPTCrowdsale",
  "abi": [
    {
      "constant": true,
      "inputs": [],
      "name": "DONE",
      "outputs": [
        {
          "name": "",
          "type": "uint256"
        }
      ],
      "payable": false,
      "stateMutability": "view",
      "type": "function"
    },
    {
      "constant": true,
      "inputs": [],
      "name": "ICO_3",
      "outputs": [
        {
          "name": "",
          "type": "uint256"
        }
      ],
      "payable": false,
      "stateMutability": "view",
      "type": "function"
    },
    {
      "constant": true,
      "inputs": [],
      "name": "preICOEnd",
      "outputs": [
        {
          "name": "",
          "type": "uint256"
        }
      ],
      "payable": false,
      "stateMutability": "view",
      "type": "function"
    },
    {
      "constant": true,
      "inputs": [
        {
          "name": "",
          "type": "uint256"
        }
      ],
      "name": "totalWeiRaisedAtStage",
      "outputs": [
        {
          "name": "",
          "type": "uint256"
        }
      ],
      "payable": false,
      "stateMutability": "view",
      "type": "function"
    },
    {
      "constant": true,
      "inputs": [],
      "name": "LIVE",
      "outputs": [
        {
          "name": "",
          "type": "uint256"
        }
      ],
      "payable": false,
      "stateMutability": "view",
      "type": "function"
    },
    {
      "constant": true,
      "inputs": [],
      "name": "privateSaleEnd",
      "outputs": [
        {
          "name": "",
          "type": "uint256"
        }
      ],
      "payable": false,
      "stateMutability": "view",
      "type": "function"
    },
    {
      "constant": true,
      "inputs": [],
      "name": "dollarInWei",
      "outputs": [
        {
          "name": "",
          "type": "uint256"
        }
      ],
      "payable": false,
      "stateMutability": "view",
      "type": "function"
    },
    {
      "constant": true,
      "inputs": [
        {
          "name": "",
          "type": "address"
        }
      ],
      "name": "contributions",
      "outputs": [
        {
          "name": "",
          "type": "uint256"
        }
      ],
      "payable": false,
      "stateMutability": "view",
      "type": "function"
    },
    {
      "constant": true,
      "inputs": [
        {
          "name": "",
          "type": "uint256"
        }
      ],
      "name": "stageAllotments",
      "outputs": [
        {
          "name": "",
          "type": "uint256"
        }
      ],
      "payable": false,
      "stateMutability": "view",
      "type": "function"
    },
    {
      "constant": true,
      "inputs": [],
      "name": "ICO_2",
      "outputs": [
        {
          "name": "",
          "type": "uint256"
        }
      ],
      "payable": false,
      "stateMutability": "view",
      "type": "function"
    },
    {
      "constant": true,
      "inputs": [],
      "name": "currentStage",
      "outputs": [
        {
          "name": "",
          "type": "uint256"
        }
      ],
      "payable": false,
      "stateMutability": "view",
      "type": "function"
    },
    {
      "constant": true,
      "inputs": [],
      "name": "treasury",
      "outputs": [
        {
          "name": "",
          "type": "address"
        }
      ],
      "payable": false,
      "stateMutability": "view",
      "type": "function"
    },
    {
      "constant": true,
      "inputs": [],
      "name": "treasuryWalletAllotment",
      "outputs": [
        {
          "name": "",
          "type": "uint256"
        }
      ],
      "payable": false,
      "stateMutability": "view",
      "type": "function"
    },
    {
      "constant": false,
      "inputs": [],
      "name": "renounceOwnership",
      "outputs": [],
      "payable": false,
      "stateMutability": "nonpayable",
      "type": "function"
    },
    {
      "constant": true,
      "inputs": [],
      "name": "ico1End",
      "outputs": [
        {
          "name": "",
          "type": "uint256"
        }
      ],
      "payable": false,
      "stateMutability": "view",
      "type": "function"
    },
    {
      "constant": true,
      "inputs": [],
      "name": "ICO_1",
      "outputs": [
        {
          "name": "",
          "type": "uint256"
        }
      ],
      "payable": false,
      "stateMutability": "view",
      "type": "function"
    },
    {
      "constant": true,
      "inputs": [],
      "name": "owner",
      "outputs": [
        {
          "name": "",
          "type": "address"
        }
      ],
      "payable": false,
      "stateMutability": "view",
      "type": "function"
    },
    {
      "constant": true,
      "inputs": [],
      "name": "isOwner",
      "outputs": [
        {
          "name": "",
          "type": "bool"
        }
      ],
      "payable": false,
      "stateMutability": "view",
      "type": "function"
    },
    {
      "constant": true,
      "inputs": [],
      "name": "PRIVATE_SALE",
      "outputs": [
        {
          "name": "",
          "type": "uint256"
        }
      ],
      "payable": false,
      "stateMutability": "view",
      "type": "function"
    },
    {
      "constant": true,
      "inputs": [],
      "name": "ico3End",
      "outputs": [
        {
          "name": "",
          "type": "uint256"
        }
      ],
      "payable": false,
      "stateMutability": "view",
      "type": "function"
    },
    {
      "constant": true,
      "inputs": [
        {
          "name": "",
          "type": "uint256"
        }
      ],
      "name": "stagePrices",
      "outputs": [
        {
          "name": "",
          "type": "uint256"
        }
      ],
      "payable": false,
      "stateMutability": "view",
      "type": "function"
    },
    {
      "constant": true,
      "inputs": [],
      "name": "liveEnd",
      "outputs": [
        {
          "name": "",
          "type": "uint256"
        }
      ],
      "payable": false,
      "stateMutability": "view",
      "type": "function"
    },
    {
      "constant": true,
      "inputs": [],
      "name": "ethPriceProvider",
      "outputs": [
        {
          "name": "",
          "type": "address"
        }
      ],
      "payable": false,
      "stateMutability": "view",
      "type": "function"
    },
    {
      "constant": true,
      "inputs": [],
      "name": "currentETHPrice",
      "outputs": [
        {
          "name": "",
          "type": "uint256"
        }
      ],
      "payable": false,
      "stateMutability": "view",
      "type": "function"
    },
    {
      "constant": true,
      "inputs": [],
      "name": "ico2End",
      "outputs": [
        {
          "name": "",
          "type": "uint256"
        }
      ],
      "payable": false,
      "stateMutability": "view",
      "type": "function"
    },
    {
      "constant": false,
      "inputs": [
        {
          "name": "newOwner",
          "type": "address"
        }
      ],
      "name": "transferOwnership",
      "outputs": [],
      "payable": false,
      "stateMutability": "nonpayable",
      "type": "function"
    },
    {
      "constant": true,
      "inputs": [],
      "name": "PRE_ICO",
      "outputs": [
        {
          "name": "",
          "type": "uint256"
        }
      ],
      "payable": false,
      "stateMutability": "view",
      "type": "function"
    },
    {
      "constant": true,
      "inputs": [],
      "name": "DRCPTToken",
      "outputs": [
        {
          "name": "",
          "type": "address"
        }
      ],
      "payable": false,
      "stateMutability": "view",
      "type": "function"
    },
    {
      "constant": true,
      "inputs": [
        {
          "name": "",
          "type": "address"
        }
      ],
      "name": "purchasedAmounts",
      "outputs": [
        {
          "name": "",
          "type": "uint256"
        }
      ],
      "payable": false,
      "stateMutability": "view",
      "type": "function"
    },
    {
      "constant": true,
      "inputs": [],
      "name": "ethPrice",
      "outputs": [
        {
          "name": "",
          "type": "uint256"
        }
      ],
      "payable": false,
      "stateMutability": "view",
      "type": "function"
    },
    {
      "inputs": [
        {
          "name": "_treasury",
          "type": "address"
        },
        {
          "name": "timestamps",
          "type": "uint256[6]"
        },
        {
          "name": "_tokenAddress",
          "type": "address"
        }
      ],
      "payable": false,
      "stateMutability": "nonpayable",
      "type": "constructor"
    },
    {
      "payable": true,
      "stateMutability": "payable",
      "type": "fallback"
    },
    {
      "anonymous": false,
      "inputs": [
        {
          "indexed": true,
          "name": "buyer",
          "type": "address"
        },
        {
          "indexed": true,
          "name": "tokenAmount",
          "type": "uint256"
        },
        {
          "indexed": false,
          "name": "atStage",
          "type": "uint256"
        }
      ],
      "name": "TokensSold",
      "type": "event"
    },
    {
      "anonymous": false,
      "inputs": [
        {
          "indexed": true,
          "name": "previousOwner",
          "type": "address"
        },
        {
          "indexed": true,
          "name": "newOwner",
          "type": "address"
        }
      ],
      "name": "OwnershipTransferred",
      "type": "event"
    },
    {
      "constant": false,
      "inputs": [
        {
          "name": "ethUsdPrice",
          "type": "uint256"
        }
      ],
      "name": "receiveEthPrice",
      "outputs": [],
      "payable": false,
      "stateMutability": "nonpayable",
      "type": "function"
    },
    {
      "constant": false,
      "inputs": [
        {
          "name": "provider",
          "type": "address"
        }
      ],
      "name": "setEthPriceProvider",
      "outputs": [],
      "payable": false,
      "stateMutability": "nonpayable",
      "type": "function"
    },
    {
      "constant": false,
      "inputs": [],
      "name": "updatePrices",
      "outputs": [],
      "payable": false,
      "stateMutability": "nonpayable",
      "type": "function"
    },
    {
      "constant": false,
      "inputs": [],
      "name": "withdrawRaisedETH",
      "outputs": [],
      "payable": false,
      "stateMutability": "nonpayable",
      "type": "function"
    },
    {
      "constant": false,
      "inputs": [],
      "name": "withdrawRemainingTokens",
      "outputs": [],
      "payable": false,
      "stateMutability": "nonpayable",
      "type": "function"
    },
    {
      "constant": true,
      "inputs": [],
      "name": "getRemainingTokens",
      "outputs": [
        {
          "name": "",
          "type": "uint256"
        }
      ],
      "payable": false,
      "stateMutability": "view",
      "type": "function"
    },
    {
      "constant": false,
      "inputs": [],
      "name": "getRefund",
      "outputs": [],
      "payable": false,
      "stateMutability": "nonpayable",
      "type": "function"
    },
    {
      "constant": true,
      "inputs": [],
      "name": "getCrowdsaleStage",
      "outputs": [
        {
          "name": "",
          "type": "uint256"
        }
      ],
      "payable": false,
      "stateMutability": "view",
      "type": "function"
    },
    {
      "constant": false,
      "inputs": [
        {
          "name": "token",
          "type": "address"
        }
      ],
      "name": "withdrawToken",
      "outputs": [],
      "payable": false,
      "stateMutability": "nonpayable",
      "type": "function"
    },
    {
      "constant": true,
      "inputs": [],
      "name": "getTimeNow",
      "outputs": [
        {
          "name": "",
          "type": "uint256"
        }
      ],
      "payable": false,
      "stateMutability": "view",
      "type": "function"
    }
  ],
  "bytecode": "0x60806040523480156200001157600080fd5b5060405161010080620028ee83398101806040526101008110156200003557600080fd5b810190808051906020019092919091908260c0018051906020019092919050505033600160006101000a81548173ffffffffffffffffffffffffffffffffffffffff021916908373ffffffffffffffffffffffffffffffffffffffff160217905550600160009054906101000a900473ffffffffffffffffffffffffffffffffffffffff1673ffffffffffffffffffffffffffffffffffffffff16600073ffffffffffffffffffffffffffffffffffffffff167f8be0079c531659141344cd1fd0a4f28419497f9722a3daafe3b4186f6b6457e060405160405180910390a382600073ffffffffffffffffffffffffffffffffffffffff168173ffffffffffffffffffffffffffffffffffffffff1614151515620001bb576040517f08c379a000000000000000000000000000000000000000000000000000000000815260040180806020018281038252600c8152602001807f416464726573732069732030000000000000000000000000000000000000000081525060200191505060405180910390fd5b81600073ffffffffffffffffffffffffffffffffffffffff168173ffffffffffffffffffffffffffffffffffffffff161415151562000262576040517f08c379a000000000000000000000000000000000000000000000000000000000815260040180806020018281038252600c8152602001807f416464726573732069732030000000000000000000000000000000000000000081525060200191505060405180910390fd5b612af8600a8190555084600960006101000a81548173ffffffffffffffffffffffffffffffffffffffff021916908373ffffffffffffffffffffffffffffffffffffffff16021790555082600860006101000a81548173ffffffffffffffffffffffffffffffffffffffff021916908373ffffffffffffffffffffffffffffffffffffffff16021790555062000308600562000596640100000000026401000000009004565b6011600060018152602001908152602001600020819055506200033b601962000596640100000000026401000000009004565b6011600060028152602001908152602001600020819055506200036e603262000596640100000000026401000000009004565b601160006003815260200190815260200160002081905550620003a1604b62000596640100000000026401000000009004565b601160006004815260200190815260200160002081905550620003d4606462000596640100000000026401000000009004565b60116000600581526020019081526020016000208190555062000407606462000596640100000000026401000000009004565b6011600060068152602001908152602001600020819055508360006006811015156200042f57fe5b60200201516002819055508360016006811015156200044a57fe5b60200201516003819055508360026006811015156200046557fe5b60200201516004819055508360036006811015156200048057fe5b60200201516005819055508360046006811015156200049b57fe5b6020020151600681905550836005600681101515620004b657fe5b60200201516007819055506a084595161401484a0000006012600060018152602001908152602001600020819055506969e10de76676d08000006012600060028152602001908152602001600020819055506934f086f3b33b6840000060126000600381526020019081526020016000208190555069152d02c7e14af6800000601260006004815260200190815260200160002081905550690a968163f0a57b400000601260006005815260200190815260200160002081905550600160126000600681526020019081526020016000208190555050505050506200065c565b6000620005e7600a54620005ca84670de0b6b3a7640000620005ee6401000000000262001da1179091906401000000009004565b620006306401000000000262001d77179091906401000000009004565b9050919050565b6000808314156200060357600090506200062a565b600082840290508284828115156200061757fe5b041415156200062557600080fd5b809150505b92915050565b600080821115156200064157600080fd5b600082848115156200064f57fe5b0490508091505092915050565b612282806200066c6000396000f3fe6080604052600436106101ee576000357c0100000000000000000000000000000000000000000000000000000000900463ffffffff1680630bbe62e4146101f957806314b8902f1461022457806325d14d8e1461024f57806327bb01481461027a5780632a92ee8b146102c957806330689fdb146102f4578063356b1bae1461031f57806342e94c901461034a57806345f29b2f146103af57806349dd1262146103fe57806355d5ffd7146104155780635b4012be146104405780635bf5d54c1461046b57806361d027b31461049657806363b49c24146104ed578063715018a6146105185780637418dabf1461052f5780638548d2521461055a57806389476069146105855780638afbf669146105d65780638da5cb5b146105ed5780638f32d59b1461064457806398c83a161461067357806399d3156d1461069e5780639e64a10d146106c9578063a47001a814610718578063af35ae2714610753578063b2d5ae441461077e578063ba9b5ae614610795578063cb9fe032146107c0578063e41f7dc1146107eb578063e4e9bcca14610842578063e9a158a614610893578063ef952263146108be578063f2fde38b146108e9578063f49b76231461093a578063f9fb9d3014610965578063fdc2c74d146109bc578063fe07d1d5146109d3578063ff186b2e14610a38575b6101f734610a63565b005b34801561020557600080fd5b5061020e610c97565b6040518082815260200191505060405180910390f35b34801561023057600080fd5b50610239610c9c565b6040518082815260200191505060405180910390f35b34801561025b57600080fd5b50610264610ca1565b6040518082815260200191505060405180910390f35b34801561028657600080fd5b506102b36004803603602081101561029d57600080fd5b8101908080359060200190929190505050610ca7565b6040518082815260200191505060405180910390f35b3480156102d557600080fd5b506102de610cbf565b6040518082815260200191505060405180910390f35b34801561030057600080fd5b50610309610cc4565b6040518082815260200191505060405180910390f35b34801561032b57600080fd5b50610334610cca565b6040518082815260200191505060405180910390f35b34801561035657600080fd5b506103996004803603602081101561036d57600080fd5b81019080803573ffffffffffffffffffffffffffffffffffffffff169060200190929190505050610cd0565b6040518082815260200191505060405180910390f35b3480156103bb57600080fd5b506103e8600480360360208110156103d257600080fd5b8101908080359060200190929190505050610ce8565b6040518082815260200191505060405180910390f35b34801561040a57600080fd5b50610413610d00565b005b34801561042157600080fd5b5061042a610de1565b6040518082815260200191505060405180910390f35b34801561044c57600080fd5b50610455610de6565b6040518082815260200191505060405180910390f35b34801561047757600080fd5b50610480610e9d565b6040518082815260200191505060405180910390f35b3480156104a257600080fd5b506104ab610ea3565b604051808273ffffffffffffffffffffffffffffffffffffffff1673ffffffffffffffffffffffffffffffffffffffff16815260200191505060405180910390f35b3480156104f957600080fd5b50610502610ec9565b6040518082815260200191505060405180910390f35b34801561052457600080fd5b5061052d610ecf565b005b34801561053b57600080fd5b50610544610fa3565b6040518082815260200191505060405180910390f35b34801561056657600080fd5b5061056f610fa9565b6040518082815260200191505060405180910390f35b34801561059157600080fd5b506105d4600480360360208110156105a857600080fd5b81019080803573ffffffffffffffffffffffffffffffffffffffff169060200190929190505050610fae565b005b3480156105e257600080fd5b506105eb611280565b005b3480156105f957600080fd5b506106026114a8565b604051808273ffffffffffffffffffffffffffffffffffffffff1673ffffffffffffffffffffffffffffffffffffffff16815260200191505060405180910390f35b34801561065057600080fd5b506106596114d2565b604051808215151515815260200191505060405180910390f35b34801561067f57600080fd5b5061068861152a565b6040518082815260200191505060405180910390f35b3480156106aa57600080fd5b506106b361152f565b6040518082815260200191505060405180910390f35b3480156106d557600080fd5b50610702600480360360208110156106ec57600080fd5b8101908080359060200190929190505050611535565b6040518082815260200191505060405180910390f35b34801561072457600080fd5b506107516004803603602081101561073b57600080fd5b810190808035906020019092919050505061154d565b005b34801561075f57600080fd5b506107686115c9565b6040518082815260200191505060405180910390f35b34801561078a57600080fd5b5061079361161d565b005b3480156107a157600080fd5b506107aa611a65565b6040518082815260200191505060405180910390f35b3480156107cc57600080fd5b506107d5611a6d565b6040518082815260200191505060405180910390f35b3480156107f757600080fd5b50610800611a73565b604051808273ffffffffffffffffffffffffffffffffffffffff1673ffffffffffffffffffffffffffffffffffffffff16815260200191505060405180910390f35b34801561084e57600080fd5b506108916004803603602081101561086557600080fd5b81019080803573ffffffffffffffffffffffffffffffffffffffff169060200190929190505050611a98565b005b34801561089f57600080fd5b506108a8611b95565b6040518082815260200191505060405180910390f35b3480156108ca57600080fd5b506108d3611b9b565b6040518082815260200191505060405180910390f35b3480156108f557600080fd5b506109386004803603602081101561090c57600080fd5b81019080803573ffffffffffffffffffffffffffffffffffffffff169060200190929190505050611ba1565b005b34801561094657600080fd5b5061094f611bc0565b6040518082815260200191505060405180910390f35b34801561097157600080fd5b5061097a611bc5565b604051808273ffffffffffffffffffffffffffffffffffffffff1673ffffffffffffffffffffffffffffffffffffffff16815260200191505060405180910390f35b3480156109c857600080fd5b506109d1611beb565b005b3480156109df57600080fd5b50610a22600480360360208110156109f657600080fd5b81019080803573ffffffffffffffffffffffffffffffffffffffff169060200190929190505050611d59565b6040518082815260200191505060405180910390f35b348015610a4457600080fd5b50610a4d611d71565b6040518082815260200191505060405180910390f35b6006544211151515610add576040517f08c379a000000000000000000000000000000000000000000000000000000000815260040180806020018281038252600e8152602001807f49434f2068617320656e6465642e00000000000000000000000000000000000081525060200191505060405180910390fd5b6000610ae7610de6565b905080600c54141515610afc5780600c819055505b60116000828152602001908152602001600020548210151515610b87576040517f08c379a00000000000000000000000000000000000000000000000000000000081526004018080602001828103825260138152602001807f4e6f7420656e6f756768204554482073656e740000000000000000000000000081525060200191505060405180910390fd5b6000610baf601160008481526020019081526020016000205484611d7790919063ffffffff16565b90506012600083815260200190815260200160002054811115610c8757601260008381526020019081526020016000205490506000610c1c6012600085815260200190815260200160002054610c0e8487611da190919063ffffffff16565b611d7790919063ffffffff16565b9050610c288282611ddf565b3373ffffffffffffffffffffffffffffffffffffffff166108fc610c5583876120df90919063ffffffff16565b9081150290604051600060405180830381858888f19350505050158015610c80573d6000803e3d6000fd5b5050610c92565b610c918184611ddf565b5b505050565b600781565b600581565b60035481565b60136020528060005260406000206000915090505481565b600681565b60025481565b600b5481565b600f6020528060005260406000206000915090505481565b60126020528060005260406000206000915090505481565b610d086114d2565b1515610d1357600080fd5b610d1d6005612101565b601160006001815260200190815260200160002081905550610d3f6019612101565b601160006002815260200190815260200160002081905550610d616032612101565b601160006003815260200190815260200160002081905550610d83604b612101565b601160006004815260200190815260200160002081905550610da56064612101565b601160006005815260200190815260200160002081905550610dc76064612101565b601160006006815260200190815260200160002081905550565b600481565b60008060079050600254421015610e005760019050610e60565b600354421015610e135760029050610e5f565b600454421015610e265760039050610e5e565b600554421015610e395760049050610e5d565b600654421015610e4c5760059050610e5c565b600754421015610e5b57600690505b5b5b5b5b5b5b60006012600083815260200190815260200160002054148015610e845750600681105b15610e96578080600101915050610e61565b8091505090565b600c5481565b600960009054906101000a900473ffffffffffffffffffffffffffffffffffffffff1681565b600e5481565b610ed76114d2565b1515610ee257600080fd5b600073ffffffffffffffffffffffffffffffffffffffff16600160009054906101000a900473ffffffffffffffffffffffffffffffffffffffff1673ffffffffffffffffffffffffffffffffffffffff167f8be0079c531659141344cd1fd0a4f28419497f9722a3daafe3b4186f6b6457e060405160405180910390a36000600160006101000a81548173ffffffffffffffffffffffffffffffffffffffff021916908373ffffffffffffffffffffffffffffffffffffffff160217905550565b60045481565b600381565b610fb66114d2565b1515610fc157600080fd5b80600073ffffffffffffffffffffffffffffffffffffffff168173ffffffffffffffffffffffffffffffffffffffff1614151515611067576040517f08c379a000000000000000000000000000000000000000000000000000000000815260040180806020018281038252600c8152602001807f416464726573732069732030000000000000000000000000000000000000000081525060200191505060405180910390fd5b600860009054906101000a900473ffffffffffffffffffffffffffffffffffffffff1673ffffffffffffffffffffffffffffffffffffffff168273ffffffffffffffffffffffffffffffffffffffff16141515156110c457600080fd5b60008290508073ffffffffffffffffffffffffffffffffffffffff1663a9059cbb338373ffffffffffffffffffffffffffffffffffffffff166370a08231306040518263ffffffff167c0100000000000000000000000000000000000000000000000000000000028152600401808273ffffffffffffffffffffffffffffffffffffffff1673ffffffffffffffffffffffffffffffffffffffff16815260200191505060206040518083038186803b15801561117f57600080fd5b505afa158015611193573d6000803e3d6000fd5b505050506040513d60208110156111a957600080fd5b81019080805190602001909291905050506040518363ffffffff167c0100000000000000000000000000000000000000000000000000000000028152600401808373ffffffffffffffffffffffffffffffffffffffff1673ffffffffffffffffffffffffffffffffffffffff16815260200182815260200192505050602060405180830381600087803b15801561123f57600080fd5b505af1158015611253573d6000803e3d6000fd5b505050506040513d602081101561126957600080fd5b810190808051906020019092919050505050505050565b60065442101515156112fa576040517f08c379a00000000000000000000000000000000000000000000000000000000081526004018080602001828103825260138152602001807f49434f206973207374696c6c20676f696e672e0000000000000000000000000081525060200191505060405180910390fd5b6113026114d2565b151561130d57600080fd5b60008090506000600190505b6006811015611381576000601260008381526020019081526020016000205490506000811415156113735760006012600084815260200190815260200160002081905550611370818461213990919063ffffffff16565b92505b508080600101915050611319565b50600860009054906101000a900473ffffffffffffffffffffffffffffffffffffffff1673ffffffffffffffffffffffffffffffffffffffff1663a9059cbb600960009054906101000a900473ffffffffffffffffffffffffffffffffffffffff16836040518363ffffffff167c0100000000000000000000000000000000000000000000000000000000028152600401808373ffffffffffffffffffffffffffffffffffffffff1673ffffffffffffffffffffffffffffffffffffffff16815260200182815260200192505050602060405180830381600087803b15801561146957600080fd5b505af115801561147d573d6000803e3d6000fd5b505050506040513d602081101561149357600080fd5b81019080805190602001909291905050505050565b6000600160009054906101000a900473ffffffffffffffffffffffffffffffffffffffff16905090565b6000600160009054906101000a900473ffffffffffffffffffffffffffffffffffffffff1673ffffffffffffffffffffffffffffffffffffffff163373ffffffffffffffffffffffffffffffffffffffff1614905090565b600181565b60065481565b60116020528060005260406000206000915090505481565b6000809054906101000a900473ffffffffffffffffffffffffffffffffffffffff1673ffffffffffffffffffffffffffffffffffffffff163373ffffffffffffffffffffffffffffffffffffffff161415156115a857600080fd5b6000811115156115b757600080fd5b80600a819055506115c6610d00565b50565b600080600090506000600190505b60068110156116155761160660126000838152602001908152602001600020548361213990919063ffffffff16565b915080806001019150506115d7565b508091505090565b6006544210151515611697576040517f08c379a00000000000000000000000000000000000000000000000000000000081526004018080602001828103825260138152602001807f49434f206973207374696c6c20676f696e672e0000000000000000000000000081525060200191505060405180910390fd5b6000600f60003373ffffffffffffffffffffffffffffffffffffffff1673ffffffffffffffffffffffffffffffffffffffff1681526020019081526020016000205490506000601060003373ffffffffffffffffffffffffffffffffffffffff1673ffffffffffffffffffffffffffffffffffffffff1681526020019081526020016000205490506000821115156117bd576040517f08c379a00000000000000000000000000000000000000000000000000000000081526004018080602001828103825260278152602001807f596f75206469646e277420706172746963697061746520696e2074686520637281526020017f6f776473616c650000000000000000000000000000000000000000000000000081525060400191505060405180910390fd5b60008111151561185b576040517f08c379a00000000000000000000000000000000000000000000000000000000081526004018080602001828103825260278152602001807f596f75206469646e277420706172746963697061746520696e2074686520637281526020017f6f776473616c650000000000000000000000000000000000000000000000000081525060400191505060405180910390fd5b6000600f60003373ffffffffffffffffffffffffffffffffffffffff1673ffffffffffffffffffffffffffffffffffffffff168152602001908152602001600020819055506000601060003373ffffffffffffffffffffffffffffffffffffffff1673ffffffffffffffffffffffffffffffffffffffff168152602001908152602001600020819055503373ffffffffffffffffffffffffffffffffffffffff166108fc839081150290604051600060405180830381858888f1935050505015801561192b573d6000803e3d6000fd5b50600860009054906101000a900473ffffffffffffffffffffffffffffffffffffffff1673ffffffffffffffffffffffffffffffffffffffff166323b872dd3330846040518463ffffffff167c0100000000000000000000000000000000000000000000000000000000028152600401808473ffffffffffffffffffffffffffffffffffffffff1673ffffffffffffffffffffffffffffffffffffffff1681526020018373ffffffffffffffffffffffffffffffffffffffff1673ffffffffffffffffffffffffffffffffffffffff1681526020018281526020019350505050602060405180830381600087803b158015611a2557600080fd5b505af1158015611a39573d6000803e3d6000fd5b505050506040513d6020811015611a4f57600080fd5b8101908080519060200190929190505050505050565b600042905090565b60075481565b6000809054906101000a900473ffffffffffffffffffffffffffffffffffffffff1681565b80600073ffffffffffffffffffffffffffffffffffffffff168173ffffffffffffffffffffffffffffffffffffffff1614151515611b3e576040517f08c379a000000000000000000000000000000000000000000000000000000000815260040180806020018281038252600c8152602001807f416464726573732069732030000000000000000000000000000000000000000081525060200191505060405180910390fd5b611b466114d2565b1515611b5157600080fd5b816000806101000a81548173ffffffffffffffffffffffffffffffffffffffff021916908373ffffffffffffffffffffffffffffffffffffffff1602179055505050565b600d5481565b60055481565b611ba96114d2565b1515611bb457600080fd5b611bbd8161215a565b50565b600281565b600860009054906101000a900473ffffffffffffffffffffffffffffffffffffffff1681565b6006544210151515611c65576040517f08c379a00000000000000000000000000000000000000000000000000000000081526004018080602001828103825260138152602001807f49434f206973207374696c6c20676f696e672e0000000000000000000000000081525060200191505060405180910390fd5b611c6d6114d2565b1515611c7857600080fd5b60008090506000600190505b6006811015611cec57600060136000838152602001908152602001600020549050600081141515611cde5760006013600084815260200190815260200160002081905550611cdb818461213990919063ffffffff16565b92505b508080600101915050611c84565b50600960009054906101000a900473ffffffffffffffffffffffffffffffffffffffff1673ffffffffffffffffffffffffffffffffffffffff166108fc829081150290604051600060405180830381858888f19350505050158015611d55573d6000803e3d6000fd5b5050565b60106020528060005260406000206000915090505481565b600a5481565b60008082111515611d8757600080fd5b60008284811515611d9457fe5b0490508091505092915050565b600080831415611db45760009050611dd9565b60008284029050828482811515611dc757fe5b04141515611dd457600080fd5b809150505b92915050565b6000600c549050611e3882600f60003373ffffffffffffffffffffffffffffffffffffffff1673ffffffffffffffffffffffffffffffffffffffff1681526020019081526020016000205461213990919063ffffffff16565b600f60003373ffffffffffffffffffffffffffffffffffffffff1673ffffffffffffffffffffffffffffffffffffffff16815260200190815260200160002081905550611ecd83601060003373ffffffffffffffffffffffffffffffffffffffff1673ffffffffffffffffffffffffffffffffffffffff1681526020019081526020016000205461213990919063ffffffff16565b601060003373ffffffffffffffffffffffffffffffffffffffff1673ffffffffffffffffffffffffffffffffffffffff16815260200190815260200160002081905550611f3682601360008481526020019081526020016000205461213990919063ffffffff16565b6013600083815260200190815260200160002081905550611f738360126000848152602001908152602001600020546120df90919063ffffffff16565b6012600083815260200190815260200160002081905550600860009054906101000a900473ffffffffffffffffffffffffffffffffffffffff1673ffffffffffffffffffffffffffffffffffffffff1663a9059cbb33856040518363ffffffff167c0100000000000000000000000000000000000000000000000000000000028152600401808373ffffffffffffffffffffffffffffffffffffffff1673ffffffffffffffffffffffffffffffffffffffff16815260200182815260200192505050602060405180830381600087803b15801561204f57600080fd5b505af1158015612063573d6000803e3d6000fd5b505050506040513d602081101561207957600080fd5b810190808051906020019092919050505050823373ffffffffffffffffffffffffffffffffffffffff167f2dcf9433d75db0d8b1c172641f85e319ffe4ad22e108a95d1847ceb906e5195d836040518082815260200191505060405180910390a3505050565b60008282111515156120f057600080fd5b600082840390508091505092915050565b6000612132600a5461212484670de0b6b3a7640000611da190919063ffffffff16565b611d7790919063ffffffff16565b9050919050565b600080828401905083811015151561215057600080fd5b8091505092915050565b600073ffffffffffffffffffffffffffffffffffffffff168173ffffffffffffffffffffffffffffffffffffffff161415151561219657600080fd5b8073ffffffffffffffffffffffffffffffffffffffff16600160009054906101000a900473ffffffffffffffffffffffffffffffffffffffff1673ffffffffffffffffffffffffffffffffffffffff167f8be0079c531659141344cd1fd0a4f28419497f9722a3daafe3b4186f6b6457e060405160405180910390a380600160006101000a81548173ffffffffffffffffffffffffffffffffffffffff021916908373ffffffffffffffffffffffffffffffffffffffff1602179055505056fea165627a7a723058208be39085eab0329d8d60cfc04fa817d9a3a6f1c71982afae7b5b7e58ba5ccc0b0029",
  "source": "pragma solidity >= 0.4.21 < 0.6.0;\n\nimport \"openzeppelin-solidity/contracts/token/ERC20/ERC20.sol\";\nimport \"openzeppelin-solidity/contracts/math/SafeMath.sol\";\nimport \"./Ownable.sol\";\n\ncontract PriceReceiver {\n    address public ethPriceProvider;\n\n    modifier onlyEthPriceProvider() {\n        require(msg.sender == ethPriceProvider);\n        _;\n    }\n\n    // constructor(address _ethPriceProvider) internal{\n    //     ethPriceProvider = _ethPriceProvider;\n    // }\n\n    function receiveEthPrice(uint ethUsdPrice) external;\n\n    function setEthPriceProvider(address provider) external;\n}\n\ncontract DRCPTCrowdsale is PriceReceiver, Ownable {\n    using SafeMath for uint256;\n\n    uint256 public constant PRIVATE_SALE = 1;\n    uint256 public constant PRE_ICO = 2;\n    uint256 public constant ICO_1 = 3;\n    uint256 public constant ICO_2 = 4;\n    uint256 public constant ICO_3 = 5;\n    uint256 public constant LIVE = 6;\n    uint256 public constant DONE = 7;\n\n    uint256 public privateSaleEnd;\n    uint256 public preICOEnd;\n    uint256 public ico1End;\n    uint256 public ico2End;\n    uint256 public ico3End;\n    uint256 public liveEnd;\n\n    ERC20 public DRCPTToken;\n    address payable public treasury;\n\n    uint256 public ethPrice;\n    uint256 public dollarInWei;\n    uint256 public currentStage;\n    uint256 public currentETHPrice;\n    uint256 public treasuryWalletAllotment;\n\n    mapping(address => uint256) public contributions;\n    mapping(address => uint256) public purchasedAmounts;\n    // stagePrices is the amount of ETH needed for one token.\n    mapping(uint256 => uint256) public stagePrices;\n    mapping(uint256 => uint256) public stageAllotments;\n    mapping(uint256 => uint256) public totalWeiRaisedAtStage;\n\n    // Events\n    event TokensSold(address indexed buyer, uint256 indexed tokenAmount, uint256 atStage);\n\n    modifier validAddress(address _address){\n        require(_address != address(0x0), \"Address is 0\");\n        _;\n    }\n\n    modifier tokenSaleActive() {\n        require(now <= ico3End, \"ICO has ended.\");\n        _;\n    }\n\n    modifier tokenSaleOver() {\n        require(now >= ico3End, \"ICO is still going.\");\n        _;\n    }\n\n    // Constructor\n    // ============\n    constructor (\n        address payable _treasury,\n        uint256[6] memory timestamps,\n        address _tokenAddress\n        //address _ethPriceProvider\n    )\n        public\n        validAddress(_treasury)\n        validAddress(_tokenAddress)\n     //  validAddress(_ethPriceProvider)\n        Ownable()\n     //   PriceReceiver(_ethPriceProvider)\n    {\n        ethPrice = 11000;\n        treasury = _treasury;\n        DRCPTToken = ERC20(_tokenAddress);\n\n        stagePrices[PRIVATE_SALE] = getCentsInWei(5);\n        stagePrices[PRE_ICO] = getCentsInWei(25);\n        stagePrices[ICO_1] = getCentsInWei(50);\n        stagePrices[ICO_2] = getCentsInWei(75);\n        stagePrices[ICO_3] = getCentsInWei(100);\n        stagePrices[LIVE] = getCentsInWei(100);\n\n        privateSaleEnd = timestamps[0];\n        preICOEnd = timestamps[1];\n        ico1End = timestamps[2];\n        ico2End = timestamps[3];\n        ico3End = timestamps[4];\n        liveEnd = timestamps[5];\n\n        stageAllotments[PRIVATE_SALE] = 10000000 * 10**18;\n        stageAllotments[PRE_ICO] = 500000 * 10**18;\n        stageAllotments[ICO_1] = 250000 * 10**18;\n        stageAllotments[ICO_2] = 100000 * 10**18;\n        stageAllotments[ICO_3] = 50000 * 10**18;\n        stageAllotments[LIVE] = 1; // To avoid skiping of this stage\n    }\n\n    function receiveEthPrice(uint ethUsdPrice) external onlyEthPriceProvider {\n        require(ethUsdPrice > 0);\n        ethPrice = ethUsdPrice;\n        updatePrices();\n    }\n\n    function setEthPriceProvider(address provider) external validAddress(provider) onlyOwner {\n        ethPriceProvider = provider;\n    }\n\n    // Token Purchase\n    // =========================\n    function () external payable {\n        buyTokens(msg.value);\n    }\n\n    function updatePrices() public onlyOwner {\n        stagePrices[PRIVATE_SALE] = getCentsInWei(5);\n        stagePrices[PRE_ICO] = getCentsInWei(25);\n        stagePrices[ICO_1] = getCentsInWei(50);\n        stagePrices[ICO_2] = getCentsInWei(75);\n        stagePrices[ICO_3] = getCentsInWei(100);\n        stagePrices[LIVE] = getCentsInWei(100);\n    }\n\n    // TODO needs onlyOwner\n    function withdrawRaisedETH() public tokenSaleOver onlyOwner {\n        uint256 total = 0;\n        for (uint256 stage = PRIVATE_SALE; stage < LIVE; stage++) {\n            uint256 weiRaised = totalWeiRaisedAtStage[stage];\n            if (weiRaised != 0) {\n                totalWeiRaisedAtStage[stage] = 0;\n                total = total.add(weiRaised);\n            }\n        }\n        treasury.transfer(total);\n    }\n\n    // TODO needs onlyOwner\n    function withdrawRemainingTokens() public tokenSaleOver onlyOwner {\n        uint256 total = 0;\n        for (uint256 stage = PRIVATE_SALE; stage < LIVE; stage++) {\n            uint256 allotment = stageAllotments[stage];\n            if (allotment != 0) {\n                stageAllotments[stage] = 0;\n                total = total.add(allotment);\n            }\n        }\n        DRCPTToken.transfer(treasury, total);\n    }\n\n    function getRemainingTokens() public view returns (uint256) {\n        uint256 tokens = 0;\n        for (uint256 stage = PRIVATE_SALE; stage < LIVE; stage++) {\n            tokens = tokens.add(stageAllotments[stage]);\n        }\n        return tokens;\n    }\n\n    // TODO - add check for owner withdrawal\n    function getRefund() public tokenSaleOver {\n        uint256 contribution = contributions[msg.sender];\n        uint256 purchasedAmount = purchasedAmounts[msg.sender];\n        require(contribution > 0, \"You didn't participate in the crowdsale\");\n        require(purchasedAmount > 0, \"You didn't participate in the crowdsale\");\n        contributions[msg.sender] = 0;\n        purchasedAmounts[msg.sender] = 0;\n        msg.sender.transfer(contribution);\n        DRCPTToken.transferFrom(msg.sender, address(this), purchasedAmount);\n    }\n\n    // Get Crowdsale stage.\n    function getCrowdsaleStage() public view returns (uint256) {\n        uint256 stage = 7; // Becasue after LIVE, It was returning stage 1 which is wrong.\n        if (now < privateSaleEnd) {\n            stage = PRIVATE_SALE;\n        } else if (now < preICOEnd) {\n            stage = PRE_ICO;\n        } else if (now < ico1End) {\n            stage = ICO_1;\n        } else if (now < ico2End) {\n            stage = ICO_2;\n        } else if (now < ico3End) {\n            stage = ICO_3;\n        } else if (now < liveEnd) {\n            stage = LIVE;\n        }\n\n        while (stageAllotments[stage] == 0 && stage < LIVE) {\n            stage++;\n        }\n\n        return stage;\n    }\n\n    function withdrawToken(address token) external onlyOwner validAddress(token) {\n        require(token != address(DRCPTToken));\n        ERC20 erc20 = ERC20(token);\n        erc20.transfer(msg.sender, erc20.balanceOf(address(this)));\n    }\n\n    //buyTokens\n    //=============================================================\n    function buyTokens(uint256 ethSent) internal tokenSaleActive {\n        uint256 stage = getCrowdsaleStage();\n        if(currentStage != stage) {\n            currentStage = stage;\n        }\n        require(ethSent >= stagePrices[stage], \"Not enough ETH sent\");\n        uint256 tokens = ethSent.div(stagePrices[stage]);\n        // Check here to make sure we don't go over an allotment\n        if (tokens > stageAllotments[stage]) {\n            tokens = stageAllotments[stage];\n            // Calculate how much ETH we use to fill the rest of the allotment.\n            uint256 ethUsed = ethSent.mul(tokens).div(stageAllotments[stage]);\n            executePurchase(tokens, ethUsed);\n            // Refund the ETH that is out of the crowdsale amount\n            msg.sender.transfer(ethSent.sub(ethUsed));\n        } else {\n            executePurchase(tokens, ethSent);\n        }\n    }\n\n    function executePurchase(uint256 tokens, uint256 eth) internal {\n        uint256 stage = currentStage;\n        contributions[msg.sender] = contributions[msg.sender].add(eth);\n        purchasedAmounts[msg.sender] = purchasedAmounts[msg.sender].add(tokens);\n        totalWeiRaisedAtStage[stage] = totalWeiRaisedAtStage[stage].add(eth);\n        stageAllotments[stage] = stageAllotments[stage].sub(tokens);\n        DRCPTToken.transfer(msg.sender, tokens);\n        emit TokensSold(msg.sender, tokens, stage);\n    }\n\n    function getCentsInWei(uint256 cents) internal view returns (uint256) {\n        return uint256(1 ether).mul(cents).div(ethPrice);\n    }\n\n    function getTimeNow()external view returns (uint256) {\n        return now;\n    }\n}\n",
  "sourcePath": "/Users/christopherarguello/Developer/DirectCrypt/newContracts/DRCPT/contracts/DRCPTCrowdsale.sol",
  "compiler": {
    "name": "solc",
    "version": "0.5.0+commit.1d4f565a.Emscripten.clang"
  },
  "schemaVersion": "3.0.1",
  "updatedAt": "2019-02-13T18:03:26.071Z",
  "devdoc": {
    "methods": {
      "isOwner()": {
        "return": "true if `msg.sender` is the owner of the contract."
      },
      "owner()": {
        "return": "the address of the owner."
      },
      "renounceOwnership()": {
        "details": "Allows the current owner to relinquish control of the contract."
      },
      "transferOwnership(address)": {
        "details": "Allows the current owner to transfer control of the contract to a newOwner.",
        "params": {
          "newOwner": "The address to transfer ownership to."
        }
      }
    }
  },
  "userdoc": {
    "methods": {
      "renounceOwnership()": {
        "notice": "Renouncing to ownership will leave the contract without an owner. It will not be possible to call the functions with the `onlyOwner` modifier anymore."
      }
    }
  }
}